S0110000746E383137626F6F742E73726563DD
S113000055C071C070C06FC06EC06DC06CC06BC095
S11300106AC069C068C067C066C065C064C063C0A8
S113002062C061C060C05FC05EC05DC05CC05BC0D8
S11300305AC059C00FEF0DBF0FE30EBF11240E9429
S1130040E90318013001AA01AA013601AA01AA0193
S1130050AA01AA01AA01AA01AA01AA01AA01AA0144
S1130060AA01A201AA01AA01AA013C014E01AA0106
S1130070AA01AA01AA01AA01AA01AA01AA01AA0124
S1130080AA01AA01AA01AA015701AA01AA01AA0167
S1130090AA01AA01AA01AA01AA01AA01AA01AA0104
S11300A0AA01AA01AA01AA017701950111241FBE80
S11300B0CFEFCDBFDFE3DEBF1EE3A0E0BEE3EEE2A1
S11300C0FDE002C005900D92A030B107D9F72EE3F0
S11300D0A0E0BEE301C01D92A032B207E1F70E9486
S11300E0E9030C941A050C940000CF93DF93CDB769
S11300F0DEB70E94B102DF91CF9108950F931F9351
S1130100CF93DF93CDB7DEB76097CDBFDEBF80E07E
S11301109FEF0E9488048F708C8381E09FEF0E9480
S113012088048D8380E094E020E3FC01208380E058
S113013094E020E3FC01268380E098E026ECFC01B7
S113014026838C81880F898323C01A820DC08AEF8D
S113015099E18B879C878B859C850197F1F78B8729
S11301609C878A818F5F8A838A81893180F38D811C
S11301708F3F31F480E094E020E2FC01278305C046
S113018080E094E020E1FC01278389818150898308
S113019089818823D1F61B820DC08AEF99E18D876E
S11301A09E878D859E850197F1F78D879E878B812C
S11301B08F5F8B838B81823380F380E098E0FC0136
S11301C08181803809F0CDC080E098E0FC01808115
S11301D08D3709F0C6C08D818F3F09F0C2C080E021
S11301E094E020E3FC012583A89588ED9BE084BF7F
S11301F09093000180E098E020ECFC0126830E94AB
S1130200B9048E838E81882F90E0092E000CAA0BEE
S1130210BB0B41E450E024E330E0841B950B28172A
S1130220390708F497C08F5D9F4FFC010C940B05B0
S11302300E94B9048F830E9480028F81823821F446
S113024080E00E94CB040BC08F81813821F480E1CF
S11302500E94CB0404C080E00E94CB047EC07DC019
S113026084E10E946E020E94800277C085E00E94B1
S11302706E020E94800271C00E94B904082F10E02F
S11302800E94B904882F90E0982F8827802B912B07
S11302908F87988B0E948002A8955FC084E00E949B
S11302A06E020E94800280E00E94CB0456C00E942D
S11302B0B904882F90E0182F00270E94B904882FD2
S11302C090E0802B912B888799870E94B9048A87B4
S11302D0A8959E01215F3F4F88859985AC016A8569
S11302E080E09EE30E94B2010E94800236C00E9418
S11302F0B904882F90E0182F00270E94B904882F92
S113030090E0802B912B888799870E94B9048A8773
S11303100E948002A8959E01215F3F4F88859985A0
S1130320A9016A850E94150218C00E9480028EE10C
S11303300E94CB0483E90E94CB0481E20E94CB0497
S1130340A8950BC00E94800280E10E94CB040E9409
S1130350B80203C00E948002000080E10E94CB0426
S11303604ECFFFCFCF93DF93CDB7DEB72A97CDBF64
S1130370DEBF8C839D836E834F83588729873A879A
S11303808E81863409F04BC089859A85FC01808171
S113039091819C01220F331F89859A85FC0120835A
S11303A0318389859A85FC01808191818A839B832D
S11303B0198211C00E94B904582F8981282F30E076
S11303C08A819B81820F931F40E0652F0E945F0604
S11303D089818F5F89838981282F30E08F81988577
S11303E02817390738F389859A85FC0120813181E2
S11303F08F819885280F391F89859A85FC01208370
S1130400318389859A85FC01808191819C0136958F
S1130410279589859A85FC012083318300002A96DB
S1130420CDBFDEBFDF91CF910895CF93DF93CDB7DA
S1130430DEB72597CDBFDEBF89839A836B834C8358
S11304405D838B81863409F043C08C819D81FC01DE
S1130450808191819C01220F331F8C819D81FC013D
S1130460208331838C819D81FC01808191810E9454
S11304701C050E94CB048C819D81FC0180819181AB
S113048001960E941C050E94CB048C819D81FC0175
S1130490808191819C012E5F3F4F8C819D81FC0165
S11304A02083318389819A81029789839A83898100
S11304B09A81892BB9F68C819D81FC01808191817F
S11304C09C01369527958C819D81FC012083318385
S11304D02596CDBFDEBFDF91CF910895CF93DF93F3
S11304E01F92CDB7DEB789830E94B90489818150F8
S11304F0898389818823C1F70F90DF91CF91089573
S1130500CF93DF93CDB7DEB70E94B904803249F4AC
S113051084E10E94CB0480E094E020E1FC01258387
S113052008C085E10E94CB0480E094E020E2FC0155
S11305302683DF91CF910895CF93DF9300D01F924C
S1130540CDB7DEB789839A836B8389819A814B8186
S113055068ED0E9499042396CDBFDEBFDF91CF9151
S11305600895CF93DF93CDB7DEB7DF91CF91089590
S1130570CF93DF93CDB7DEB761E081E490E00E94D2
S11305809C02DF91CF910895CF93DF9300D000D0E8
S1130590CDB7DEB78B836C838B81882F90E0805D31
S11305A09B4F89839A838C81813059F489819A8104
S11305B0FC018081282F286089819A81FC01208395
S11305C00DC08C81882351F489819A81FC0180813A
S11305D0282F277F89819A81FC0120832496CDBF0F
S11305E0DEBFDF91CF910895CF93DF9300D0CDB7D5
S11305F0DEB789836A838A81882F90E081309105F0
S1130600E1F08230910571F1892B09F03BC084E05F
S113061090E024E030E0F9012081622F2981422F0B
S113062050E021E030E002C0220F331F4A95E2F788
S113063020952623FC01208325C084E090E024E05B
S113064030E0F9012081622F2981422F50E021E01E
S113065030E002C0220F331F4A95E2F7262BFC013B
S1130660208310C08981882F90E0805D9B4F298171
S1130670222F30E0205D3B4FF90120812860FC01EE
S1130680208300000F900F90DF91CF910895CF93B6
S1130690DF9300D0CDB7DEB789836A838A8188234C
S11306A0A9F084E090E024E030E0F9012181622F98
S11306B02981422F50E021E030E002C0220F331F95
S11306C04A95E2F7262BFC01218315C084E090E0D3
S11306D024E030E0F9012181622F2981422F50E08A
S11306E021E030E002C0220F331F4A95E2F7209543
S11306F02623FC0121830F900F90DF91CF91089561
S1130700CF93DF931F92CDB7DEB78983698182E0EF
S11307100E94F4020F90DF91CF910895CF93DF935D
S11307201F92CDB7DEB78983698182E00E944703B7
S11307300F90DF91CF910895CF93DF931F92CDB7A0
S1130740DEB78983698183E00E94C4020F90DF9140
S1130750CF910895CF93DF931F92CDB7DEB78983EE
S1130760698183E00E94F4020F90DF91CF91089594
S1130770CF93DF931F92CDB7DEB78983698185E07C
S11307800E94C4020F90DF91CF910895CF93DF931D
S11307901F92CDB7DEB78983698185E00E94F40298
S11307A00F90DF91CF910895CF93DF9300D01F92E4
S11307B0CDB7DEB789839A836B8389819A814B8114
S11307C068ED0E9499042396CDBFDEBFDF91CF91DF
S11307D0089500D01F92CDB7DEB7198212C0898167
S11307E0882F90E0805F9B4F2981222F30E0205F8B
S11307F03B4FF90120812860FC01208389818F5FB0
S113080089838981883058F31A8212C08A81882F9B
S113081090E0805D9B4F2A81222F30E0205D3B4F8A
S1130820F90120812860FC0120838A818F5F8A83FB
S11308308A81883058F31B8212C08B81882F90E004
S1130840805B9B4F2B81222F30E0205B3B4FF901D3
S113085020812860FC0120838B818F5F8B838B81B7
S1130860883058F380E00E94C60381E00E94B803F8
S113087061E181E690E00E94D40380E00E94AA0333
S113088081E00E949C0381E00E94800361E081E09A
S11308900E94470361E081E00E94F40281E00E942B
S11308A08E030E94A5040E9480040E949D040E945D
S11308B063040E9475000E947E0081E090E023960C
S11308C0CDBFDEBF0895CF93DF93CDB7DEB780E011
S11308D0DF91CF910895CF93DF9300D01F92CDB7CE
S11308E0DEB789839A836B8389819A814B816DE911
S11308F00E9499042396CDBFDEBFDF91CF91089566
S1130900CF93DF93CDB7DEB780E0DF91CF91089529
S1130910CF93DF9300D0CDB7DEB789839A838981E3
S11309209A819C5EFC0180810F900F90DF91CF91A2
S11309300895FC0164BF40830895CF93DF93CDB73E
S1130940DEB780E0DF91CF910895CF93DF93CDB7E9
S1130950DEB780E098E024E534E0FC0120873187AD
S113096080E098E020ECFC01268380E0DF91CF91C9
S11309700895CF93DF93CDB7DEB7000080E098E011
S1130980FC0184818823D4F780E098E0FC01808115
S1130990DF91CF910895CF93DF931F92CDB7DEB748
S11309A08983000080E098E0FC018481882F90E036
S11309B080729927892BB1F380E098E020E038E039
S11309C0F90124812064FC01248380E098E020E084
S11309D038E0F90126812F77FC01268380E098E036
S11309E02981FC012283000080E098E0FC018481DD
S11309F0882F90E080749927892BB1F380E098E0E8
S1130A0020E038E0F90126812068FC0126830F905C
S1130A10DF91CF910895EE0FFF1F0590F491E02D23
S1130A200994FB01DC0102C001900D924150504039
S10B0A30D8F70895F894FFCFF4
S1130A38CF93DF9300D0CDB7DEB789839A838981BA
S1130A489A819058FC0180810F900F90DF91CF918B
S1130A580895CF93DF93CDB7DEB72897CDBFDEBF18
S1130A688C839D836E837F8348878C819D81905876
S1130A78807C8A839B83198215C08981882F90E0A2
S1130A882A813B81820F931F2981222F30E04A81DA
S1130A985B81240F351FF9012081FC0120838981A2
S1130AA88F5F89838981803440F38C819D8190583C
S1130AB82885FC01208363E080E090E10E946B04B8
S1130AC880E090E1FC018281882F90E0847099276E
S1130AD8892B11F081E001C080E02896CDBFDEBFEC
S1130AE8DF91CF910895CF93DF9300D000D0CDB795
S1130AF8DEB78B839C838B819C81905889839A83EE
S1130B0889819A81FC01108262E080E090E10E9470
S1130B186B0480E090E1FC018281882F90E084706E
S1130B289927892B11F081E001C080E02496CDBF7C
S1130B38DEBFDF91CF910895CF93DF93CDB7DEB7B2
S1130B482697CDBFDEBF8B839C836D837E838B8189
S1130B589C81905889839A832D813E8189819A81C9
S1130B6840E450E0B9010E94110561E080E090E1A1
S1130B780E946B0480E090E1FC018281882F90E060
S1130B8884709927892B11F081E001C080E02696B2
S1130B98CDBFDEBFDF91CF910895CF93DF93CDB75B
S1130BA8DEB72C97CDBFDEBF8D839E836F83788796
S1130BB849875A872B873C878D819E819058807CF2
S1130BC889839A838D818F738C831B8210C089815A
S1130BD89A81FC01208189819A81FC012083898181
S1130BE89A81019689839A838B818F5F8B839B81FA
S1130BF88C81981760F32EC089819A819C012F5F9C
S1130C083F4F29833A832F813885A9014F5F5F4F6E
S1130C184F835887F9012081FC01208389859A85AF
S1130C28019789879A8789819A818F739927892B54
S1130C3889F463E080E090E10E946B0480E090E135
S1130C48FC018281882F90E084709927892B11F008
S1130C5881E02BC089859A85892B71F689819A81CF
S1130C68FC01208189819A81FC01208389819A81F0
S1130C78019689839A8389819A818F739927892B0D
S1130C8899F463E080E090E10E946B0480E090E1D5
S1130C98FC018281882F90E084709927892B11F0B8
S1130CA881E003C080E001C0D9CF2C96CDBFDEBF60
S1130CB8DF91CF910895CF93DF93CDB7DEB7259712
S1130CC8CDBFDEBF8A839B836C834D838A819B81DE
S1130CD88F73992721E0CF9709F020E029838A812F
S1130CE89B8190582C81FC0120838981882319F4E5
S1130CF88D81882329F063E080E090E10E946B04F1
S1130D0880E090E1FC018281882F90E0847099272B
S1130D18892B11F081E001C080E02596CDBFDEBFAC
S1090D28DF91CF91089554
S9030034C8
